{"contracts/Vote.sol":{"GoerliETHTransfer":{"abi":[{"inputs":[{"internalType":"uint256","name":"amount","type":"uint256"}],"name":"transfer","outputs":[],"stateMutability":"payable","type":"function"}],"evm":{"bytecode":{"linkReferences":{},"object":"608060405234801561001057600080fd5b50610106806100206000396000f3fe608060405260043610601c5760003560e01c806312514bba146021575b600080fd5b6030602c366004608c565b6032565b005b6000604482670de0b6b3a764000060a4565b604051909150735b38da6a701c568545dcfcb03fcb875f56beddc49082156108fc029083906000818181858888f193505050501580156087573d6000803e3d6000fd5b505050565b600060208284031215609d57600080fd5b5035919050565b600081600019048311821515161560cb57634e487b7160e01b600052601160045260246000fd5b50029056fea2646970667358221220ae491b82c8a49aea4f861c26ca9ee127706ad4c03842c4a81f795b7147648a0564736f6c63430008090033","opcodes":"PUSH1 0x80 PUSH1 0x40 MSTORE CALLVALUE DUP1 ISZERO PUSH2 0x10 JUMPI PUSH1 0x0 DUP1 REVERT JUMPDEST POP PUSH2 0x106 DUP1 PUSH2 0x20 PUSH1 0x0 CODECOPY PUSH1 0x0 RETURN INVALID PUSH1 0x80 PUSH1 0x40 MSTORE PUSH1 0x4 CALLDATASIZE LT PUSH1 0x1C JUMPI PUSH1 0x0 CALLDATALOAD PUSH1 0xE0 SHR DUP1 PUSH4 0x12514BBA EQ PUSH1 0x21 JUMPI JUMPDEST PUSH1 0x0 DUP1 REVERT JUMPDEST PUSH1 0x30 PUSH1 0x2C CALLDATASIZE PUSH1 0x4 PUSH1 0x8C JUMP JUMPDEST PUSH1 0x32 JUMP JUMPDEST STOP JUMPDEST PUSH1 0x0 PUSH1 0x44 DUP3 PUSH8 0xDE0B6B3A7640000 PUSH1 0xA4 JUMP JUMPDEST PUSH1 0x40 MLOAD SWAP1 SWAP2 POP PUSH20 0x5B38DA6A701C568545DCFCB03FCB875F56BEDDC4 SWAP1 DUP3 ISZERO PUSH2 0x8FC MUL SWAP1 DUP4 SWAP1 PUSH1 0x0 DUP2 DUP2 DUP2 DUP6 DUP9 DUP9 CALL SWAP4 POP POP POP POP ISZERO DUP1 ISZERO PUSH1 0x87 JUMPI RETURNDATASIZE PUSH1 0x0 DUP1 RETURNDATACOPY RETURNDATASIZE PUSH1 0x0 REVERT JUMPDEST POP POP POP JUMP JUMPDEST PUSH1 0x0 PUSH1 0x20 DUP3 DUP5 SUB SLT ISZERO PUSH1 0x9D JUMPI PUSH1 0x0 DUP1 REVERT JUMPDEST POP CALLDATALOAD SWAP2 SWAP1 POP JUMP JUMPDEST PUSH1 0x0 DUP2 PUSH1 0x0 NOT DIV DUP4 GT DUP3 ISZERO ISZERO AND ISZERO PUSH1 0xCB JUMPI PUSH4 0x4E487B71 PUSH1 0xE0 SHL PUSH1 0x0 MSTORE PUSH1 0x11 PUSH1 0x4 MSTORE PUSH1 0x24 PUSH1 0x0 REVERT JUMPDEST POP MUL SWAP1 JUMP INVALID LOG2 PUSH5 0x6970667358 0x22 SLT KECCAK256 0xAE 0x49 SHL DUP3 0xC8 LOG4 SWAP11 0xEA 0x4F DUP7 SHR 0x26 0xCA SWAP15 0xE1 0x27 PUSH17 0x6AD4C03842C4A81F795B7147648A056473 PUSH16 0x6C634300080900330000000000000000 "},"methodIdentifiers":{"transfer(uint256)":"12514bba"}}}}}