{
  "_format": "hh-sol-artifact-1",
  "contractName": "GoerliETHHolder",
  "sourceName": "contracts/Pool.sol",
  "abi": [
    {
      "inputs": [],
      "name": "returnGoerliETH",
      "outputs": [],
      "stateMutability": "nonpayable",
      "type": "function"
    },
    {
      "inputs": [],
      "name": "sendETH",
      "outputs": [],
      "stateMutability": "payable",
      "type": "function"
    },
    {
      "inputs": [
        {
          "internalType": "uint256",
          "name": "minutesFromNow",
          "type": "uint256"
        }
      ],
      "name": "setEndTime",
      "outputs": [],
      "stateMutability": "nonpayable",
      "type": "function"
    },
    {
      "stateMutability": "payable",
      "type": "receive"
    }
  ],
  "bytecode": "0x608060405234801561001057600080fd5b50610357806100206000396000f3fe6080604052600436106100385760003560e01c80631d16d9a0146100bc578063ccb98ffc146100c6578063fc8f24f9146100e657600080fd5b366100b7573360009081526001602052604090205461009157600080546001810182559080527f290decd9548b62a8d60345a988386fc84ba6bc95484008f6362f93160ef3e5630180546001600160a01b031916331790555b33600090815260016020526040812080543492906100b09084906102a0565b9091555050005b600080fd5b6100c46100fb565b005b3480156100d257600080fd5b506100c46100e13660046102b8565b610175565b3480156100f257600080fd5b506100c4610190565b3360009081526001602052604090205461014f57600080546001810182559080527f290decd9548b62a8d60345a988386fc84ba6bc95484008f6362f93160ef3e5630180546001600160a01b031916331790555b336000908152600160205260408120805434929061016e9084906102a0565b9091555050565b61018081603c6102d1565b61018a90426102a0565b60025550565b6002544210156101dd5760405162461bcd60e51b8152602060048201526014602482015273115b99081d1a5b59481b9bdd081c995858da195960621b604482015260640160405180910390fd5b60005b6000548110156102875760008082815481106101fe576101fe6102f0565b60009182526020808320909101546001600160a01b031680835260019091526040909120549091508015610272576001600160a01b0382166000818152600160205260408082208290555183156108fc0291849190818181858888f19350505050158015610270573d6000803e3d6000fd5b505b5050808061027f90610306565b9150506101e0565b50565b634e487b7160e01b600052601160045260246000fd5b600082198211156102b3576102b361028a565b500190565b6000602082840312156102ca57600080fd5b5035919050565b60008160001904831182151516156102eb576102eb61028a565b500290565b634e487b7160e01b600052603260045260246000fd5b600060001982141561031a5761031a61028a565b506001019056fea2646970667358221220331f31823207293146b554c7ce11da0d87a107f994db0390fe610292fc8ffadc64736f6c63430008090033",
  "linkReferences": {},
  "deployedLinkReferences": {}
}