{
  "_format": "hh-sol-artifact-1",
  "contractName": "Token",
  "sourceName": "contracts/Token.sol",
  "abi": [
    {
      "inputs": [],
      "stateMutability": "nonpayable",
      "type": "constructor"
    },
    {
      "anonymous": false,
      "inputs": [
        {
          "indexed": true,
          "internalType": "address",
          "name": "owner",
          "type": "address"
        },
        {
          "indexed": true,
          "internalType": "address",
          "name": "approved",
          "type": "address"
        },
        {
          "indexed": true,
          "internalType": "uint256",
          "name": "tokenId",
          "type": "uint256"
        }
      ],
      "name": "Approval",
      "type": "event"
    },
    {
      "anonymous": false,
      "inputs": [
        {
          "indexed": true,
          "internalType": "address",
          "name": "owner",
          "type": "address"
        },
        {
          "indexed": true,
          "internalType": "address",
          "name": "operator",
          "type": "address"
        },
        {
          "indexed": false,
          "internalType": "bool",
          "name": "approved",
          "type": "bool"
        }
      ],
      "name": "ApprovalForAll",
      "type": "event"
    },
    {
      "anonymous": false,
      "inputs": [
        {
          "indexed": true,
          "internalType": "address",
          "name": "previousOwner",
          "type": "address"
        },
        {
          "indexed": true,
          "internalType": "address",
          "name": "newOwner",
          "type": "address"
        }
      ],
      "name": "OwnershipTransferred",
      "type": "event"
    },
    {
      "anonymous": false,
      "inputs": [
        {
          "indexed": true,
          "internalType": "address",
          "name": "from",
          "type": "address"
        },
        {
          "indexed": true,
          "internalType": "address",
          "name": "to",
          "type": "address"
        },
        {
          "indexed": true,
          "internalType": "uint256",
          "name": "tokenId",
          "type": "uint256"
        }
      ],
      "name": "Transfer",
      "type": "event"
    },
    {
      "inputs": [
        {
          "internalType": "address",
          "name": "to",
          "type": "address"
        },
        {
          "internalType": "uint256",
          "name": "tokenId",
          "type": "uint256"
        }
      ],
      "name": "approve",
      "outputs": [],
      "stateMutability": "nonpayable",
      "type": "function"
    },
    {
      "inputs": [
        {
          "internalType": "address",
          "name": "owner",
          "type": "address"
        }
      ],
      "name": "balanceOf",
      "outputs": [
        {
          "internalType": "uint256",
          "name": "",
          "type": "uint256"
        }
      ],
      "stateMutability": "view",
      "type": "function"
    },
    {
      "inputs": [
        {
          "internalType": "uint256",
          "name": "tokenId",
          "type": "uint256"
        }
      ],
      "name": "burn",
      "outputs": [],
      "stateMutability": "nonpayable",
      "type": "function"
    },
    {
      "inputs": [
        {
          "internalType": "uint256",
          "name": "tokenId",
          "type": "uint256"
        }
      ],
      "name": "getApproved",
      "outputs": [
        {
          "internalType": "address",
          "name": "",
          "type": "address"
        }
      ],
      "stateMutability": "view",
      "type": "function"
    },
    {
      "inputs": [
        {
          "internalType": "address",
          "name": "owner",
          "type": "address"
        },
        {
          "internalType": "address",
          "name": "operator",
          "type": "address"
        }
      ],
      "name": "isApprovedForAll",
      "outputs": [
        {
          "internalType": "bool",
          "name": "",
          "type": "bool"
        }
      ],
      "stateMutability": "view",
      "type": "function"
    },
    {
      "inputs": [],
      "name": "name",
      "outputs": [
        {
          "internalType": "string",
          "name": "",
          "type": "string"
        }
      ],
      "stateMutability": "view",
      "type": "function"
    },
    {
      "inputs": [],
      "name": "owner",
      "outputs": [
        {
          "internalType": "address",
          "name": "",
          "type": "address"
        }
      ],
      "stateMutability": "view",
      "type": "function"
    },
    {
      "inputs": [
        {
          "internalType": "uint256",
          "name": "tokenId",
          "type": "uint256"
        }
      ],
      "name": "ownerOf",
      "outputs": [
        {
          "internalType": "address",
          "name": "",
          "type": "address"
        }
      ],
      "stateMutability": "view",
      "type": "function"
    },
    {
      "inputs": [],
      "name": "renounceOwnership",
      "outputs": [],
      "stateMutability": "nonpayable",
      "type": "function"
    },
    {
      "inputs": [
        {
          "internalType": "address",
          "name": "to",
          "type": "address"
        },
        {
          "internalType": "string",
          "name": "uri",
          "type": "string"
        }
      ],
      "name": "safeMint",
      "outputs": [],
      "stateMutability": "nonpayable",
      "type": "function"
    },
    {
      "inputs": [
        {
          "internalType": "address",
          "name": "from",
          "type": "address"
        },
        {
          "internalType": "address",
          "name": "to",
          "type": "address"
        },
        {
          "internalType": "uint256",
          "name": "tokenId",
          "type": "uint256"
        }
      ],
      "name": "safeTransferFrom",
      "outputs": [],
      "stateMutability": "nonpayable",
      "type": "function"
    },
    {
      "inputs": [
        {
          "internalType": "address",
          "name": "from",
          "type": "address"
        },
        {
          "internalType": "address",
          "name": "to",
          "type": "address"
        },
        {
          "internalType": "uint256",
          "name": "tokenId",
          "type": "uint256"
        },
        {
          "internalType": "bytes",
          "name": "data",
          "type": "bytes"
        }
      ],
      "name": "safeTransferFrom",
      "outputs": [],
      "stateMutability": "nonpayable",
      "type": "function"
    },
    {
      "inputs": [
        {
          "internalType": "address",
          "name": "operator",
          "type": "address"
        },
        {
          "internalType": "bool",
          "name": "approved",
          "type": "bool"
        }
      ],
      "name": "setApprovalForAll",
      "outputs": [],
      "stateMutability": "nonpayable",
      "type": "function"
    },
    {
      "inputs": [
        {
          "internalType": "bytes4",
          "name": "interfaceId",
          "type": "bytes4"
        }
      ],
      "name": "supportsInterface",
      "outputs": [
        {
          "internalType": "bool",
          "name": "",
          "type": "bool"
        }
      ],
      "stateMutability": "view",
      "type": "function"
    },
    {
      "inputs": [],
      "name": "symbol",
      "outputs": [
        {
          "internalType": "string",
          "name": "",
          "type": "string"
        }
      ],
      "stateMutability": "view",
      "type": "function"
    },
    {
      "inputs": [
        {
          "internalType": "uint256",
          "name": "tokenId",
          "type": "uint256"
        }
      ],
      "name": "tokenURI",
      "outputs": [
        {
          "internalType": "string",
          "name": "",
          "type": "string"
        }
      ],
      "stateMutability": "view",
      "type": "function"
    },
    {
      "inputs": [
        {
          "internalType": "address",
          "name": "from",
          "type": "address"
        },
        {
          "internalType": "address",
          "name": "to",
          "type": "address"
        },
        {
          "internalType": "uint256",
          "name": "tokenId",
          "type": "uint256"
        }
      ],
      "name": "transferFrom",
      "outputs": [],
      "stateMutability": "nonpayable",
      "type": "function"
    },
    {
      "inputs": [
        {
          "internalType": "address",
          "name": "newOwner",
          "type": "address"
        }
      ],
      "name": "transferOwnership",
      "outputs": [],
      "stateMutability": "nonpayable",
      "type": "function"
    }
  ],
  "bytecode": "0x60806040523480156200001157600080fd5b5060408051808201825260058152642a37b5b2b760d91b6020808301918252835180850190945260038452622a25a760e91b9084015281519192916200005a91600091620000e9565b50805162000070906001906020840190620000e9565b5050506200008d620000876200009360201b60201c565b62000097565b620001cc565b3390565b600780546001600160a01b038381166001600160a01b0319831681179093556040519116919082907f8be0079c531659141344cd1fd0a4f28419497f9722a3daafe3b4186f6b6457e090600090a35050565b828054620000f7906200018f565b90600052602060002090601f0160209004810192826200011b576000855562000166565b82601f106200013657805160ff191683800117855562000166565b8280016001018555821562000166579182015b828111156200016657825182559160200191906001019062000149565b506200017492915062000178565b5090565b5b8082111562000174576000815560010162000179565b600181811c90821680620001a457607f821691505b60208210811415620001c657634e487b7160e01b600052602260045260246000fd5b50919050565b6118ec80620001dc6000396000f3fe608060405234801561001057600080fd5b50600436106101165760003560e01c8063715018a6116100a2578063b88d4fde11610071578063b88d4fde14610239578063c87b56dd1461024c578063d204c45e1461025f578063e985e9c514610272578063f2fde38b146102ae57600080fd5b8063715018a6146102055780638da5cb5b1461020d57806395d89b411461021e578063a22cb4651461022657600080fd5b806323b872dd116100e957806323b872dd1461019857806342842e0e146101ab57806342966c68146101be5780636352211e146101d157806370a08231146101e457600080fd5b806301ffc9a71461011b57806306fdde0314610143578063081812fc14610158578063095ea7b314610183575b600080fd5b61012e6101293660046113f7565b6102c1565b60405190151581526020015b60405180910390f35b61014b610313565b60405161013a919061146c565b61016b61016636600461147f565b6103a5565b6040516001600160a01b03909116815260200161013a565b6101966101913660046114b4565b6103cc565b005b6101966101a63660046114de565b6104e7565b6101966101b93660046114de565b610519565b6101966101cc36600461147f565b610534565b61016b6101df36600461147f565b610565565b6101f76101f236600461151a565b6105c5565b60405190815260200161013a565b61019661064b565b6007546001600160a01b031661016b565b61014b61065f565b610196610234366004611535565b61066e565b6101966102473660046115fd565b61067d565b61014b61025a36600461147f565b6106b5565b61019661026d366004611679565b6106c0565b61012e6102803660046116db565b6001600160a01b03918216600090815260056020908152604080832093909416825291909152205460ff1690565b6101966102bc36600461151a565b6106ef565b60006001600160e01b031982166380ac58cd60e01b14806102f257506001600160e01b03198216635b5e139f60e01b145b8061030d57506301ffc9a760e01b6001600160e01b03198316145b92915050565b6060600080546103229061170e565b80601f016020809104026020016040519081016040528092919081815260200182805461034e9061170e565b801561039b5780601f106103705761010080835404028352916020019161039b565b820191906000526020600020905b81548152906001019060200180831161037e57829003601f168201915b5050505050905090565b60006103b082610765565b506000908152600460205260409020546001600160a01b031690565b60006103d782610565565b9050806001600160a01b0316836001600160a01b0316141561044a5760405162461bcd60e51b815260206004820152602160248201527f4552433732313a20617070726f76616c20746f2063757272656e74206f776e656044820152603960f91b60648201526084015b60405180910390fd5b336001600160a01b038216148061046657506104668133610280565b6104d85760405162461bcd60e51b815260206004820152603d60248201527f4552433732313a20617070726f76652063616c6c6572206973206e6f7420746f60448201527f6b656e206f776e6572206f7220617070726f76656420666f7220616c6c0000006064820152608401610441565b6104e283836107c4565b505050565b6104f2335b82610832565b61050e5760405162461bcd60e51b815260040161044190611749565b6104e28383836108b1565b6104e28383836040518060200160405280600081525061067d565b61053d336104ec565b6105595760405162461bcd60e51b815260040161044190611749565b61056281610a15565b50565b6000818152600260205260408120546001600160a01b03168061030d5760405162461bcd60e51b8152602060048201526018602482015277115490cdcc8c4e881a5b9d985b1a59081d1bdad95b88125160421b6044820152606401610441565b60006001600160a01b03821661062f5760405162461bcd60e51b815260206004820152602960248201527f4552433732313a2061646472657373207a65726f206973206e6f7420612076616044820152683634b21037bbb732b960b91b6064820152608401610441565b506001600160a01b031660009081526003602052604090205490565b610653610a1e565b61065d6000610a78565b565b6060600180546103229061170e565b610679338383610aca565b5050565b6106873383610832565b6106a35760405162461bcd60e51b815260040161044190611749565b6106af84848484610b99565b50505050565b606061030d82610bcc565b60006106cb60085490565b90506106db600880546001019055565b6106e58382610cd5565b6104e28183610cef565b6106f7610a1e565b6001600160a01b03811661075c5760405162461bcd60e51b815260206004820152602660248201527f4f776e61626c653a206e6577206f776e657220697320746865207a65726f206160448201526564647265737360d01b6064820152608401610441565b61056281610a78565b6000818152600260205260409020546001600160a01b03166105625760405162461bcd60e51b8152602060048201526018602482015277115490cdcc8c4e881a5b9d985b1a59081d1bdad95b88125160421b6044820152606401610441565b600081815260046020526040902080546001600160a01b0319166001600160a01b03841690811790915581906107f982610565565b6001600160a01b03167f8c5be1e5ebec7d5bd14f71427d1e84f3dd0314c0f7b2291e5b200ac8c7c3b92560405160405180910390a45050565b60008061083e83610565565b9050806001600160a01b0316846001600160a01b0316148061088557506001600160a01b0380821660009081526005602090815260408083209388168352929052205460ff165b806108a95750836001600160a01b031661089e846103a5565b6001600160a01b0316145b949350505050565b826001600160a01b03166108c482610565565b6001600160a01b0316146108ea5760405162461bcd60e51b815260040161044190611796565b6001600160a01b03821661094c5760405162461bcd60e51b8152602060048201526024808201527f4552433732313a207472616e7366657220746f20746865207a65726f206164646044820152637265737360e01b6064820152608401610441565b826001600160a01b031661095f82610565565b6001600160a01b0316146109855760405162461bcd60e51b815260040161044190611796565b600081815260046020908152604080832080546001600160a01b03199081169091556001600160a01b0387811680865260038552838620805460001901905590871680865283862080546001019055868652600290945282852080549092168417909155905184937fddf252ad1be2c89b69c2b068fc378daa952ba7f163c4a11628f55a4df523b3ef91a4505050565b61056281610d89565b6007546001600160a01b0316331461065d5760405162461bcd60e51b815260206004820181905260248201527f4f776e61626c653a2063616c6c6572206973206e6f7420746865206f776e65726044820152606401610441565b600780546001600160a01b038381166001600160a01b0319831681179093556040519116919082907f8be0079c531659141344cd1fd0a4f28419497f9722a3daafe3b4186f6b6457e090600090a35050565b816001600160a01b0316836001600160a01b03161415610b2c5760405162461bcd60e51b815260206004820152601960248201527f4552433732313a20617070726f766520746f2063616c6c6572000000000000006044820152606401610441565b6001600160a01b03838116600081815260056020908152604080832094871680845294825291829020805460ff191686151590811790915591519182527f17307eab39ab6107e8899845ad3d59bd9653f200f220920489ca2b5937696c31910160405180910390a3505050565b610ba48484846108b1565b610bb084848484610dc9565b6106af5760405162461bcd60e51b8152600401610441906117db565b6060610bd782610765565b60008281526006602052604081208054610bf09061170e565b80601f0160208091040260200160405190810160405280929190818152602001828054610c1c9061170e565b8015610c695780601f10610c3e57610100808354040283529160200191610c69565b820191906000526020600020905b815481529060010190602001808311610c4c57829003601f168201915b505050505090506000610c8760408051602081019091526000815290565b9050805160001415610c9a575092915050565b815115610ccc578082604051602001610cb492919061182d565b60405160208183030381529060405292505050919050565b6108a984610ed6565b610679828260405180602001604052806000815250610f4a565b6000828152600260205260409020546001600160a01b0316610d6a5760405162461bcd60e51b815260206004820152602e60248201527f45524337323155524953746f726167653a2055524920736574206f66206e6f6e60448201526d32bc34b9ba32b73a103a37b5b2b760911b6064820152608401610441565b600082815260066020908152604090912082516104e292840190611312565b610d9281610f7d565b60008181526006602052604090208054610dab9061170e565b15905061056257600081815260066020526040812061056291611396565b60006001600160a01b0384163b15610ecb57604051630a85bd0160e11b81526001600160a01b0385169063150b7a0290610e0d90339089908890889060040161185c565b602060405180830381600087803b158015610e2757600080fd5b505af1925050508015610e57575060408051601f3d908101601f19168201909252610e5491810190611899565b60015b610eb1573d808015610e85576040519150601f19603f3d011682016040523d82523d6000602084013e610e8a565b606091505b508051610ea95760405162461bcd60e51b8152600401610441906117db565b805181602001fd5b6001600160e01b031916630a85bd0160e11b1490506108a9565b506001949350505050565b6060610ee182610765565b6000610ef860408051602081019091526000815290565b90506000815111610f185760405180602001604052806000815250610f43565b80610f2284611012565b604051602001610f3392919061182d565b6040516020818303038152906040525b9392505050565b610f5483836110af565b610f616000848484610dc9565b6104e25760405162461bcd60e51b8152600401610441906117db565b6000610f8882610565565b9050610f9382610565565b600083815260046020908152604080832080546001600160a01b03199081169091556001600160a01b0385168085526003845282852080546000190190558785526002909352818420805490911690555192935084927fddf252ad1be2c89b69c2b068fc378daa952ba7f163c4a11628f55a4df523b3ef908390a45050565b6060600061101f8361123a565b600101905060008167ffffffffffffffff81111561103f5761103f611571565b6040519080825280601f01601f191660200182016040528015611069576020820181803683370190505b5090508181016020015b600019016f181899199a1a9b1b9c1cb0b131b232b360811b600a86061a8153600a85049450846110a2576110a7565b611073565b509392505050565b6001600160a01b0382166111055760405162461bcd60e51b815260206004820181905260248201527f4552433732313a206d696e7420746f20746865207a65726f20616464726573736044820152606401610441565b6000818152600260205260409020546001600160a01b03161561116a5760405162461bcd60e51b815260206004820152601c60248201527f4552433732313a20746f6b656e20616c7265616479206d696e746564000000006044820152606401610441565b6000818152600260205260409020546001600160a01b0316156111cf5760405162461bcd60e51b815260206004820152601c60248201527f4552433732313a20746f6b656e20616c7265616479206d696e746564000000006044820152606401610441565b6001600160a01b038216600081815260036020908152604080832080546001019055848352600290915280822080546001600160a01b0319168417905551839291907fddf252ad1be2c89b69c2b068fc378daa952ba7f163c4a11628f55a4df523b3ef908290a45050565b60008072184f03e93ff9f4daa797ed6e38ed64bf6a1f0160401b83106112795772184f03e93ff9f4daa797ed6e38ed64bf6a1f0160401b830492506040015b6d04ee2d6d415b85acef810000000083106112a5576d04ee2d6d415b85acef8100000000830492506020015b662386f26fc1000083106112c357662386f26fc10000830492506010015b6305f5e10083106112db576305f5e100830492506008015b61271083106112ef57612710830492506004015b60648310611301576064830492506002015b600a831061030d5760010192915050565b82805461131e9061170e565b90600052602060002090601f0160209004810192826113405760008555611386565b82601f1061135957805160ff1916838001178555611386565b82800160010185558215611386579182015b8281111561138657825182559160200191906001019061136b565b506113929291506113cc565b5090565b5080546113a29061170e565b6000825580601f106113b2575050565b601f01602090049060005260206000209081019061056291905b5b8082111561139257600081556001016113cd565b6001600160e01b03198116811461056257600080fd5b60006020828403121561140957600080fd5b8135610f43816113e1565b60005b8381101561142f578181015183820152602001611417565b838111156106af5750506000910152565b60008151808452611458816020860160208601611414565b601f01601f19169290920160200192915050565b602081526000610f436020830184611440565b60006020828403121561149157600080fd5b5035919050565b80356001600160a01b03811681146114af57600080fd5b919050565b600080604083850312156114c757600080fd5b6114d083611498565b946020939093013593505050565b6000806000606084860312156114f357600080fd5b6114fc84611498565b925061150a60208501611498565b9150604084013590509250925092565b60006020828403121561152c57600080fd5b610f4382611498565b6000806040838503121561154857600080fd5b61155183611498565b91506020830135801515811461156657600080fd5b809150509250929050565b634e487b7160e01b600052604160045260246000fd5b600067ffffffffffffffff808411156115a2576115a2611571565b604051601f8501601f19908116603f011681019082821181831017156115ca576115ca611571565b816040528093508581528686860111156115e357600080fd5b858560208301376000602087830101525050509392505050565b6000806000806080858703121561161357600080fd5b61161c85611498565b935061162a60208601611498565b925060408501359150606085013567ffffffffffffffff81111561164d57600080fd5b8501601f8101871361165e57600080fd5b61166d87823560208401611587565b91505092959194509250565b6000806040838503121561168c57600080fd5b61169583611498565b9150602083013567ffffffffffffffff8111156116b157600080fd5b8301601f810185136116c257600080fd5b6116d185823560208401611587565b9150509250929050565b600080604083850312156116ee57600080fd5b6116f783611498565b915061170560208401611498565b90509250929050565b600181811c9082168061172257607f821691505b6020821081141561174357634e487b7160e01b600052602260045260246000fd5b50919050565b6020808252602d908201527f4552433732313a2063616c6c6572206973206e6f7420746f6b656e206f776e6560408201526c1c881bdc88185c1c1c9bdd9959609a1b606082015260800190565b60208082526025908201527f4552433732313a207472616e736665722066726f6d20696e636f72726563742060408201526437bbb732b960d91b606082015260800190565b60208082526032908201527f4552433732313a207472616e7366657220746f206e6f6e20455243373231526560408201527131b2b4bb32b91034b6b83632b6b2b73a32b960711b606082015260800190565b6000835161183f818460208801611414565b835190830190611853818360208801611414565b01949350505050565b6001600160a01b038581168252841660208201526040810183905260806060820181905260009061188f90830184611440565b9695505050505050565b6000602082840312156118ab57600080fd5b8151610f43816113e156fea2646970667358221220172aa8ab4426a159215751b821f59238534275ea00f453cc397cf384526e913f64736f6c63430008090033",
  "linkReferences": {},
  "deployedLinkReferences": {}
}