{
  "_format": "hh-sol-artifact-1",
  "contractName": "GoerliETHTransfer",
  "sourceName": "contracts/Vote.sol",
  "abi": [
    {
      "inputs": [
        {
          "internalType": "uint256",
          "name": "amount",
          "type": "uint256"
        }
      ],
      "name": "transfer",
      "outputs": [],
      "stateMutability": "payable",
      "type": "function"
    }
  ],
  "bytecode": "0x608060405234801561001057600080fd5b50610106806100206000396000f3fe608060405260043610601c5760003560e01c806312514bba146021575b600080fd5b6030602c366004608c565b6032565b005b6000604482670de0b6b3a764000060a4565b604051909150735b38da6a701c568545dcfcb03fcb875f56beddc49082156108fc029083906000818181858888f193505050501580156087573d6000803e3d6000fd5b505050565b600060208284031215609d57600080fd5b5035919050565b600081600019048311821515161560cb57634e487b7160e01b600052601160045260246000fd5b50029056fea2646970667358221220ae491b82c8a49aea4f861c26ca9ee127706ad4c03842c4a81f795b7147648a0564736f6c63430008090033",
  "linkReferences": {},
  "deployedLinkReferences": {}
}